:020000040800F2
:1000000088070020650200083F1E0008411B000809
:100010003D1E00085B0400083123000800000000BA
:10002000000000000000000000000000431E000867
:100030000D05000800000000411E0008451E0008D4
:100040007F0200087F0200087F0200087F0200088C
:100050007F0200087F0200087F0200087F0200087C
:100060007F0200087F0200087F0200087F0200086C
:100070007F0200087F0200087F0200087F0200085C
:100080005D0400087F0200087F0200087F0200086C
:100090007F0200087F0200087F0200087F0200083C
:1000A0007F0200087F0200087F0200087F0200082C
:1000B0007F0200087F0200087F0200087F0200081C
:1000C0007F0200087F0200087F0200087F0200080C
:1000D0007F0200087F020008252300087F02000835
:1000E0007F0200087F0200087F0200087F020008EC
:1000F0007F0200087F0200087F0200087F020008DC
:100100007F0200087F0200087F0200087F020008CB
:100110007F0200087F0200087F0200087F020008BB
:100120007F0200087F0200087F0200087F020008AB
:100130007F02000800000000000000007F020008AD
:100140007F0200087F0200087F0200087F0200088B
:100150007F0200087F0200087F0200087F0200087B
:100160007F0200087F0200087F0200087F0200086B
:100170007F0200087F0200087F02000800000000E4
:10018000000000007F0200080000000000000000E6
:100190007F02000800000000000000007F0200084D
:1001A0000000000000000000000000007F020008C6
:1001B0007F0200087F0200087F0200087F0200081B
:1001C0007F02000800F002F800F03CF80AA090E876
:1001D000000C82448344AAF10107DA4501D100F002
:1001E00031F8AFF2090EBAE80F0013F0010F18BF93
:1001F000FB1A43F001031847E42300000424000025
:10020000103A24BF78C878C1FAD8520724BF30C842
:1002100030C144BF04680C60704700000023002414
:1002200000250026103A28BF78C1FBD8520728BF06
:1002300030C148BF0B6070471FB502F0B5F91FBD54
:1002400010B510BD00F0CFF81146FFF7F5FF02F032
:100250002BF900F0EDF803B4FFF7F2FF03BC00F058
:10026000F5F800000948804709480047FEE7FEE727
:10027000FEE7FEE7FEE7FEE7FEE7FEE7FEE7FEE756
:1002800004480549054A064B70470000E11E000876
:10029000C50100088801002088070020880300208D
:1002A0008803002053EA020C00F069802DE9F04B2E
:1002B0004FF00006002B1FBFB3FA83F503FA05F4D5
:1002C00024FA05F65E4012BF1643B2FA82F502FA2E
:1002D00005F4C5F120051EBF22FA05FC44EA0C0412
:1002E000203556EA044C4FEA144418BF641C4FF002
:1002F00000084FF00009904271EB030C39D300293C
:1003000019BFB1FA81F701FA07F6B0FA80F700FADF
:1003100007F6C7F120071EBF20FA07FC46EA0C06C5
:100320002037B6FBF4FCA7EB0507103F07F01F0BC7
:10033000CBF120060CFA0BFB2CFA06F644BFB346B1
:100340000026202FA4BF5E464FF0000B5BEA060C90
:1003500008BF4FF0010B19EB0B09ABFB027C48EB1C
:100360000608C01B06FB02CC0BFB03CC71EB0C0197
:10037000C1E70B46024641464846BDE8F08B13B53F
:100380004FF000004FF00001AFF30080BDE81C40CB
:1003900070474FF0000200B5134694469646203948
:1003A00022BFA0E80C50A0E80C50B1F12001BFF42E
:1003B000F7AF090728BFA0E80C5048BF0CC05DF894
:1003C00004EB890028BF40F8042B08BF704748BFE2
:1003D00020F8022B11F0804F18BF00F8012B704756
:1003E000704770477047754600F02CF8AE46050020
:1003F0006946534620F00700854618B020B5FFF740
:100400003FFFBDE820404FF000064FF000074FF0DF
:1004100000084FF0000B21F00701AC46ACE8C00922
:10042000ACE8C009ACE8C009ACE8C0098D4670472B
:1004300010B50446AFF300802046BDE81040FFF73A
:100440000ABF000000487047280100200149182019
:10045000ABBEFEE7260002007047FEE7014800F051
:10046000B3B80000AC00002001681823CAB2103AEB
:10047000B2FBF3F2054B6FF30901032A9B5CC365E2
:1004800000D9091D8165084670470000BA2500089B
:1004900010B5014600208B698A6A4FF0C07453B1D1
:1004A000B3F5005F15D072B1012A0CD0022A0AD030
:1004B000032A09D104E01AB1012A06D0022A03D185
:1004C000C96AC90100D5012010BDC96AA142FAD08C
:1004D00010BD002AF7D0012AF2D0022AF3D0032A55
:1004E000F3D010BD30B50468256825F4802525605B
:1004F000046863608368402B036803D099600068D8
:10050000C26030BD9A600068C16030BD704772B68D
:10051000FEE72DE9F0410446876D00F0CDFA06466E
:1005200094F835000025022806D08020606584F804
:1005300034500120BDE8F0812068016821F01601E7
:1005400001602068416921F080014161206C08B997
:10055000A06C20B12068016821F0080101602068CA
:10056000016821F0010101600CE000F0A5FA801B98
:10057000052807D920206065032084F8350084F819
:100580003450D7E720680068C007EED194F85C10BB
:100590003F208840B860012084F8350084F834504A
:1005A0000020C7E790F83510022903D0802141656B
:1005B00001207047052180F835100068016821F09E
:1005C00001010160002070472DE9F84304464FF017
:1005D0000009CDF8009063484FF41651A56D0068EE
:1005E000B0FBF1F72E6894F85C10082000FA01F1D6
:1005F00031420FD021680A6852070BD50A6822F0F1
:1006000004020A6094F85C108840A860606D40F0B5
:100610000100606594F85C104FF0010808FA01F0E1
:10062000304208D021684969090604D5A860606D88
:1006300040F00200606594F85C100420884030426D
:1006400008D021680968890704D5A860606D40F06A
:100650000400606594F85C1010208840304218D087
:1006600021680968090714D5A86020680168490352
:1006700004D50068000308D5A16C07E00168C9052E
:1006800003D4016821F008010160216C09B1204602
:10069000884794F85C1020208840304231D021688F
:1006A0000968C9062DD5A86094F83500052820688A
:1006B000016806D0490347D5006800031DD4616C6A
:1006C0001CE021F0160101602068416921F08001E1
:1006D0004161206C08B9A06C20B12068016821F04C
:1006E0000801016094F85C103F208840A86084F8FD
:1006F000358084F83490216D1FE0E16B09B120460C
:100700008847606D00282BD0606DC00714D005208D
:1007100084F835002068016821F00101016000982B
:10072000401C0090B84203D820680068C007F6D18A
:1007300084F8358084F83490E16C002910D001B041
:100740002046BDE8F04308470168C905D5D40168D3
:1007500021F01001016084F8358084F83490CCE7F2
:10076000BDE8F883100000202DE9F041044600F0B8
:10077000A3F906465CB1022084F83500002584F810
:1007800034502068016821F0010101600DE0012072
:10079000BDE8F08100F090F9801B052805D92020E4
:1007A0006065032084F83500F2E720680068C00720
:1007B000F0D12268116820480140D4E901031843B0
:1007C000D4E903363343184363691843A3691843D4
:1007D000E3691843236A18430843616A042903D173
:1007E000D4E90B1319430843106020684069666A16
:1007F00020F0070130460E43012704280CD1A06ADF
:100800000643E06A40B12046FFF742FE20B1402097
:10081000606584F83570BAE7206846612046FFF7C6
:1008200023FE94F85C203F2191408160656584F847
:1008300035700020ACE700003F8010F02DE9F0415A
:100840000446866D90F83400002501280DD0012063
:1008500084F8340094F835700020012F07D084F814
:10086000340002252846BDE8F0810220FBE702277C
:1008700084F8357060652046FFF734FE94F85C100C
:100880003F208840B0602068016841F01601016097
:10089000206C20B12068016841F0080101602068E7
:1008A000016841F001010160DCE7000070B5044619
:1008B00000F002F90546601C02D0044800780444A8
:1008C00000F0FAF8401BA042FAD370BD04000020EB
:1008D0002DE9F84FDFF8ACA1002201240AF1040B46
:1008E00003254FF00F090BF1040E00BF0B6804FA4B
:1008F00002F63340B3426ED10F7907F00307012FA0
:1009000001D0022F16D187684FEA420805FA08FC89
:1009100027EA0C07D1F80CC00CFA08FC4CEA070CCB
:10092000C0F808C04768B7430E79C6F30016964072
:100930003E4346600E79F643B6070AD0C6684FEAD2
:10094000420C05FA0CF7BE438F6807FA0CF73743E1
:10095000C7600E7906F00306022E10D1D60800EB10
:100960008608D8F8206057074FEAD76C09FA0CF7C9
:10097000BE430F6907FA0CF73743C8F820700668C2
:100980004FEA420C05FA0CF7BE430F7907F0030754
:1009900007FA0CF7374307604E6816F4403F6BD0F8
:1009A000394E376847F480473760366822F00307CE
:1009B00006F480460096354E07EB060CDCF8086816
:1009C00097074FEA177809FA08F7BE43304FB84245
:1009D00002D100271FE04FE02E4FB84201D101277E
:1009E00019E02D4FB84201D1022714E02B4FB84235
:1009F00001D103270FE02A4FB84201D104270AE0B2
:100A0000284FB84201D1052705E0274FB84201D150
:100A1000062700E0072707FA08F73743CCF80878DD
:100A2000DAF800605746D1F804C09E435FEACC3C38
:100A300000D51E433E60DBF800605F46D1F804C07D
:100A40009E435FEA8C3C00D51E433E60DEF80060AA
:100A50007746D1F804C09E435FEACC2C00D51E43F4
:100A60003E60084F0C373E68D1F804C09E435FEAF1
:100A70008C2C00D51E433E60521C102AFFF436AF6A
:100A8000BDE8F88F003C014044380240003001408E
:100A9000000002400004024000080240000C024036
:100AA0000010024000140240001802400AB18161A7
:100AB00070470904FBE700000148806870470000A8
:100AC0000400002070B5040025D094F83D000025F6
:100AD00020B984F83C50204600F04EF9242084F8D8
:100AE0003D002068016821F0010101602068016873
:100AF00041F4004101602068016821F40041016077
:100B000000F0A4FA4D4A6168914201D84C4900E0D6
:100B10004C49884201D2012070BD4B492368B0FB8B
:100B2000F1F15E6826F03F060E435E606368934213
:100B300006D94FF4967359434FF47A73B1FBF3F12E
:100B40002368491C1E6A26F03F063143196261681A
:100B5000914210D84900401EB0FBF1F2521CC2F382
:100B60000B02042A01D2042022E0B0FBF1F0401C69
:100B7000C0F30B001CE0A268F2B301EBC10303EB6E
:100B80000116431EB3FBF6F35B1C43F480431B05C5
:100B900049D092B301EBC10202EB0111401EB0FB40
:100BA000F1F0401CC0F30B0040F4804040F40040E2
:100BB0002168CA694CF6FF739A431043C861D4E9AF
:100BC000071001432068026822F0C002114301604F
:100BD000D4E9030101432068826848F2FF339A4355
:100BE00011438160D4E9050108432168CA6822F0F5
:100BF000FF021043C86001E00EE016E020680168C3
:100C000041F0010101602564202084F83D00256346
:100C100084F83E50002070BD01EB4106431EB3FB3B
:100C2000F6F35B1CB3E70120C2E701EB4101401E74
:100C3000B0FBF1F0401CC0F30B00B7E7A086010049
:100C400080841E0000093D0040420F002DE9F84F4E
:100C50001F4690468A460446DDF82890FFF72CFF91
:100C6000054694F83D0020287FD1192301224049F0
:100C70002046009500F0F0FF002876D194F83C0063
:100C8000012872D0012084F83C0020680168C9075F
:100C900003D1016841F0010101602068016821F47D
:100CA00000610160212084F83D00102084F83E009E
:100CB00000262664C4F824806785608D20852D4831
:100CC000E0622B464A465146204600F051FF90B95B
:100CD000206841698069009036E02A4649462046EE
:100CE00001F039F850B1206C042804D12068016863
:100CF00041F4007101600120BDE8F88F606A21684D
:100D000000780861606A401C6062618D491E6185DF
:100D1000218D491E89B2218522685369DB435B0717
:100D20000BD451B100781061606A401C6062608D24
:100D3000401E6085208D401E20852A46494620465B
:100D400000F064FF0028CED1208D0028C5D154F8D2
:100D50003D0B016841F400710160202004F81E0978
:100D6000E67766770020C7E7FFE70220C4E70000C8
:100D7000020010000000FFFF10B586B004461421E9
:100D80006846FFF706FB13492068884220D11248C5
:100D90000021026842F002020260006800F00200D6
:100DA0000590C02000901220CDE90101032003909E
:100DB0000420049069460948FFF78AFD0648103070
:100DC000016841F400110160006800F40010059012
:100DD00006B010BD0054004030380240000402400C
:100DE0000248816802781144816070470400002045
:100DF0000B4810B5016841F400710160016841F4CD
:100E000080610160016841F480710160032000F09D
:100E100071F8002000F006F800F024F8002010BD62
:100E2000003C024070B50D4D04464FF47A712878AD
:100E3000B1FBF0F00A490968B1FBF0F000F03CFBAF
:100E400048B9102C07D200222146501E00F032F87B
:100E500000206C6070BD012070BD00000400002007
:100E6000100000200B4882B0016841F4804101600D
:100E7000006800F4804000900648001F016841F0BF
:100E800080510160006800F080500090072002B09F
:100E900000F030B844380240002809DB00F01F029F
:100EA000012191404009800000F1E020C0F80011CC
:100EB00070470000F0B40E4B1B680C46C3F30223CE
:100EC000C3F10705042D00D90425191D072901D2F6
:100ED000002300E0DB1E012606FA05F1491E214031
:100EE00099409E40761E16403143F0BC01F021BA75
:100EF0000CED00E0064900F0070208684FF6FF031A
:100F0000184040EA0220034A10430860704700007E
:100F10000CED00E00000FA052DE9F0470E46050053
:100F200065D0DFF81481D8F80000F7B200F00F00A8
:100F3000B04207D288F80070D8F8000000F00F0027
:100F4000B04254D128683D4C810712D5400703D5E3
:100F5000206840F4E05020602878000703D520681E
:100F600040F4604020602068A96820F0F000084349
:100F700020602878C0072DD03049686808390128DA
:100F800012D0022813D0032811D00968890700293C
:100F90002DDA216821F0030101432160FFF78CFD68
:100FA000814641F2883A0EE009688903EFE7096853
:100FB0008901ECE7FFF780FDA0EB0901514502D95B
:100FC0000320BDE8F0872068696800F00C00B0EBF2
:100FD000810FEFD1D8F80010404601F00F01B14267
:100FE00007D90770006800F00F00B04201D001205F
:100FF000E7E72878400705D52068E96820F4E05045
:10100000084320602878000706D52068296920F465
:10101000604040EAC100206000F038F82168084ACA
:10102000C1F30311515CC8400649086006480068D6
:10103000FFF7F8FE0020C4E7003C024008380240F9
:10104000C2250008100000200800002004480549BF
:1010500000680968044AC1F38221515CC8407047A6
:101060001000002008380240D22500080448054935
:1010700000680968044AC1F34231515CC8407047B6
:101080001000002008380240D2250008224810B580
:10109000006810F00C02214815D04110042A11D02C
:1010A0001D4C241F082A0FD00C2A0CD1226823685B
:1010B00002F03F025B0221D52068C0F38810A0FB3C
:1010C000010120E0084610BD2268236802F03F02BB
:1010D0005B0205D52068C0F38810A0FB010104E085
:1010E0002168C1F38811A1FB00010023FFF7DAF8A2
:1010F0002168C1F30141491C49000AE02168C1F39C
:101100008811A1FB00010023FFF7CCF82168C1F38F
:101110000271B0FBF1F010BD083802400024F40069
:101120002DE9F84F04007DD0DFF878B32078ABF1DB
:101130000407C007A7F1040550D0DBF8001058469B
:10114000C1F3810101290FD00168C1F38101022996
:1011500002D13968490207D40068C0F3810003282E
:1011600009D13868400206D52868800336D5606802
:101170000028D8D032E06068B0F5803F10D0B0F5DC
:10118000A02F286810D020F480302860286820F430
:10119000802028606068A0B1FFF78EFC06460CE056
:1011A000286840F48030F4E740F480202860F7E7B6
:1011B000FFF782FC801B642876D828688003F7D567
:1011C0000CE0FFF779FC064605E000BFFFF774FC72
:1011D000801B6428F0D828688003F7D42078DFF8D3
:1011E000C89280074FF0000A44D5DBF8001058463B
:1011F00011F00C0F0FD00168C1F38101022902D157
:101200003968490207D50068C0F3810003280AD174
:101210003868400207D42868800715D5E06801289F
:1012200000D111E03AE1E068B0B10120C9F8000056
:10123000FFF742FC064604E0FFF73EFC801B022855
:10124000BAD828688007F7D52868216920F0F80007
:1012500040EAC10028600DE0C9F800A0FFF72CFCAF
:10126000064604E0FFF728FC801B02281CD82868EB
:101270008007F7D42078000727D5DFF828828B482D
:10128000616908F16C0881B101210160FFF714FC6C
:10129000064604E0FFF710FC801B022804D8D8F8AB
:1012A00000008007F6D510E089E0C0F800A0FFF745
:1012B00003FC064605E000BFFFF7FEFB801B02288B
:1012C0007DD8D8F800008007F6D42078400769D58B
:1012D00074484FF0000838300068C0000BD47148E3
:1012E0003830016841F08051016000684FF001081A
:1012F00000F0805000906E4E3068C00511D4306808
:1013000040F480703060FFF7D7FB009006E000BF2C
:10131000FFF7D2FB0099401A022850D83068C00568
:10132000F6D5604EA068683601280FD005283068D1
:1013300010D020F001003060306820F004003060F0
:10134000A068B8B1FFF7B8FB00900FE0306840F03C
:101350000100F4E740F004003060F7E7FFF7ACFB72
:101360000099411A41F28830814264D83068800780
:10137000F4D50EE0FFF7A0FB009007E0FFF79CFB21
:101380000099411A41F28830814254D83068800770
:10139000F4D4B8F1000F05D042483830016821F08C
:1013A00080510160A069A8B3DBF80010C1F381018E
:1013B000022947D00228C9F860A005D000E03AE031
:1013C000FFF77AFB044639E0FFF776FB064604E0B8
:1013D000FFF772FB801B02282DD828688001F7D404
:1013E000F4E907010843E168324A490802EB014188
:1013F000A26841EA82110843217C40EA0160217D14
:1014000040EA017038600120C9F86000FFF754FB22
:10141000044606E044E000BFFFF74EFB001B022835
:1014200009D828688001F7D53AE000BFFFF744FBF0
:10143000001B022802D90320BDE8F88F286880012C
:10144000F4D42DE00128F7D03868E26900F4800177
:10145000914223D1226A00F03F0191421ED147F60A
:10146000C071626A0140B1EB821F17D1A26A4FF0CE
:10147000FF3300F4403103EB5202B1EB024F0DD1C8
:1014800094F82C2000F07061B1EB026F06D194F853
:10149000301000F0E040B0EB017F01D00120CBE73D
:1014A0000020C9E70838024000004742800E47424A
:1014B000007000400000FFFF10B5401EB0F1807FBB
:1014C00001D3012010BD4FF0E02460610F216017AF
:1014D00000F02FFF0020A06107202061002010BD38
:1014E00038B5044690F83E00202822D181B17AB167
:1014F00094F83C0001281CD0012084F83C002063B3
:10150000204600F08BFE002803D1216B012901D079
:10151000012038BD21680A684968009121680C31B2
:1015200051E8002F42F0100241E80023002BF5D1D2
:1015300038BD022038BD00007CB5006849498842AA
:101540005FD1494D494C28460026017840787B29D7
:1015500002D0242956D061E030386D1C032801D810
:10156000A07006E040480A232B2241A1A43800F0D5
:101570008DFA15F8010F2C2807D00A232B2247A13A
:101580003948A43800F082FA1AE015F8010F303813
:10159000092815D8C1B261706878A0F13002092A13
:1015A00007D8D02201EB810102EB410108446070B1
:1015B0006D1C6078132803D90A232C2245A1DFE78C
:1015C00068787D2815D14F49D1E90001CDE90001A6
:1015D0000D208DF803000A208DF804006178A078B2
:1015E00000F0FFFE20480A2305226946A43800F0D7
:1015F0004DFA1D4802E000BF00F8016B0178002998
:10160000FAD121E063281FD100F0A3FE0021084693
:1016100000F0E7FE18E02078401C207015F8010B60
:101620000028F8D110490A232278A1F1A40000F083
:101630002DFA0D4800F028FF0B4801E000F8016B7F
:1016400001780029FAD1267007491422A1F1A400DB
:10165000FFF746FF044860380068016821F0080180
:1016600001607CBD004400400C010020000000200F
:101670004552524F523A20496E76616C696420722D
:101680006F7720696E7075742E204F6E6C792069AB
:101690006E7075742030202D20332E004552524F2D
:1016A000523A20496E76616C696420666F726D6192
:1016B000742E2041646420272C2720746F207365CA
:1016C00070617261746520636F6C20616E6420725A
:1016D0006F772E004552524F523A20496E76616C18
:1016E000696420636F6C20696E7075742E204F6E74
:1016F0006C7920696E7075742030202D2031392E60
:1017000000000000B425000870470000F8B501682B
:1017100004460868CA684B6910F00F0F4FF00005C7
:1017200059D003F0010602F49077374365D0C10722
:1017300005D0D10503D5216C41F001012164410799
:1017400005D5D90703D0216C41F00201216481073E
:1017500005D5D90703D0216C41F0040121640107AC
:1017600007D502F02001314303D0216C41F008017C
:101770002164216C00293AD0800604D5900602D558
:10178000204600F065FC20684069216CC0F38010A1
:10179000090700D460B3204600F025FC20684069AA
:1017A000400621D52068143050E8001F21F0400188
:1017B00040E80012002AF5D1A06BA8B16C49016580
:1017C000A06BFEF7EFFE002811D0A06B016D01B0F9
:1017D000BDE8F040084783060FD593060DD5204697
:1017E000BDE8F84000F034BC2046FFF78DFFF8BD9F
:1017F0002046FFF789FF2564F8BD266B2023012EC4
:1018000079D1C60677D5D60675D5086848680090A0
:101810004869400640D5A16B086840680004000C88
:10182000EAD0A28D8242E7D9E085C869B0F5807F11
:101830002DD020680C3050E8001F21F4807140E862
:101840000012002AF5D12068143050E8001F21F062
:10185000010140E80012002AF5D12068143050E858
:10186000001F21F0400140E80012002AF5D184F861
:101870003E30256320680C3050E8001F21F0100135
:1018800040E80012002AF5D1A06BFEF742FEA08DC1
:10189000E18D401A81B229E0A08DE18D401A81B21C
:1018A000E08D0028A8D00029A6D020680C3050E890
:1018B000002F22F4907240E80026002EF5D1206817
:1018C000143050E8002F22F0010240E80026002EDC
:1018D000F5D184F83E30256320680C3050E8002FA5
:1018E00022F0100240E80023002BF5D12046FFF73C
:1018F00023FEF8BDFFE705062BD5150629D594F87C
:101900003D002128F5D1A068B0F5805F01D12069A4
:10191000B0B1206A411C2162216800784860E08CE7
:10192000401E0004000CE084E3D12068C16821F06F
:101930008001C1602068C16841F04001C160D8E702
:10194000206A0088C0F308004860206A801C20627A
:10195000E5E74006CDD55006CBD5CA68204622F033
:101960004002CA6084F83D3000F0E9F8C1E70000A9
:10197000F11E000870B5040004D094F83D00002565
:1019800010B106E0012070BD84F83C50204600F004
:1019900023F8242084F83D002068C16821F4005118
:1019A000C160204600F0B4FB2068016921F4904139
:1019B00001612068416921F02A0141612068C16804
:1019C00041F40051C1602564202084F83D0084F872
:1019D0003E00002070BD000070B586B006461421A0
:1019E0006846FEF7D6FC2349306888423FD122483A
:1019F0000025016841F400310160006800F4003006
:101A000005901D481038016841F00101016000682F
:101A1000694600F0010005900C2000900220CDE9FD
:101A2000010503200390072004901448FEF750FF9F
:101A3000144C134820604FF00060C4E901054014C5
:101A4000C4E903506561A561E561256220466562D0
:101A5000FEF78AFE08B1FEF75AFDB4630022114674
:101A60002620A663FFF726FA2620FFF715FA06B010
:101A700070BD0000004400404038024000000240B9
:101A800088600240AC000020704770472DE9F843A1
:101A9000044690F83D001F4616460D4620284CD1BE
:101AA000C5B1BEB194F83C00012846D0012084F8AD
:101AB0003C004FF00008C4F84080212084F83D002D
:101AC000FEF7FAFFA6848146E684A068B0F5805F41
:101AD00003D004E00120BDE8F883206928B12E4638
:101AE0005FF0000584F83C800EE00026FAE78021D4
:101AF000204600F0DBFBA0B9AEB116F8010B21685F
:101B00004860E08C401EE084E08C4B464FF00002C1
:101B100000970028EBD14FF04001204600F0C6FBB3
:101B200030B10320D7E735F8020BC0F30800E6E731
:101B3000202084F83D000020CDE70220CBE770474D
:101B4000FEE701684A69D24352050FD46FF4806200
:101B50004A61002140F8301F2022427381730269DC
:101B600042F00402026101730120704700207047B7
:101B7000F8B50446C06A1E460D461746082807D029
:101B8000012805D010F5803F02D0206B122804D127
:101B90002068016841F480710160134600224FF013
:101BA00001112046009600F057F840B12068006807
:101BB000C00502D54FF4007020640320F8BD2069F1
:101BC000B0F5804F0ED00620216800EAD51040F015
:101BD000F000086133463A460B49204600F070F8A1
:101BE00078B902E005F0FE0000E0E8B22168086183
:101BF000054933463A46891F204600F061F800281F
:101C0000DCD00120F8BD00000800010070B51646C8
:101C10000D4604460DE02046FFF793FF08B1012072
:101C200070BD681C05D0FEF747FF801BA84207D88F
:101C300035B120684069C0434007ECD4002070BD36
:101C4000002044F8300F20216173A073216941F016
:101C5000200121612073E2E72DE9F0471E469046FE
:101C60000D460446C1F30747DDF8209008E0701CDC
:101C700006D0FEF721FFA0EB0900B0420FD876B1E5
:101C80002068012F18D0806925EA00000004000CAC
:101C900014D000214145EAD00020BDE8F0870020A3
:101CA00044F8300F20216173A073216941F02001B5
:101CB000216120730120F0E74069E5E70121E9E7B0
:101CC0002DE9F0479A4691460E46044600254FF00E
:101CD0002008C1F3074725E020684069C04340055C
:101CE00014D42068016841F40071016021686FF428
:101CF00080604861256384F83D8084F83E50206C04
:101D000040F00400206484F83C501FE0B9F1FF3F2C
:101D100008D0FEF7D1FEA0EB0A0149450CD8B9F175
:101D2000000F09D02068012F13D0806926EA000037
:101D30000004000C0BD0CFE744F8305F84F80D802E
:101D4000A573206940F02000206125730120BDE8C3
:101D5000F0874069EAE770B516460D4604460DE087
:101D60002046FFF7EEFE08B1012070BD681C05D0CB
:101D7000FEF7A2FE801BA84207D835B12068406953
:101D8000C0430006ECD4002070BD002044F8300FA2
:101D900020216173A073216941F02001216120732A
:101DA000E2E7000030B587B014216846FEF7F1FA8B
:101DB0001F480024016841F004010160016801F03E
:101DC00004010591016841F080010160016801F0A2
:101DD00080010591016841F001010160016801F095
:101DE00001010591016841F0020101600068114D97
:101DF00000F002000590002220212846FEF756FE42
:101E00004FF4005000904FF40410CDE901046946EE
:101E10000948FEF75DFD202000900120CDE9010476
:101E2000694628460394FEF753FD07B030BD000015
:101E3000303802400000024000080240FEE7FEE7A2
:101E400070477047FEF7CCBF30B593B03421684679
:101E5000FEF79FFA14210DA8FEF79BFA1E480025F5
:101E6000016841F080510160006800F080501290DC
:101E70001A48016821F4404141F480410160006842
:101E8000022400F44040129001200390102000949E
:101E900006940490CDE907504FF4A87009900420EF
:101EA000CDE90A0468460C94FFF73AF908B172B616
:101EB000FEE70DA90F2081E831004FF48050CDE9F5
:101EC000100502210DA8FFF727F8002801D072B6EF
:101ED000FEE713B030BD0000403802400070004003
:101EE0000248016841F470010160704788ED00E02C
:101EF00010B5806B0021C185C184FFF705FC10BDC2
:101F000070B5846B2068406994F83D10C0F3C01030
:101F10000025212904D118B1E584204600F08AF873
:101F20002068406994F83E10C0F38010222904D143
:101F300018B1E585204600F056F8206C40F01000FE
:101F400020642046FFF7E0FB70BD10B50146806BB2
:101F500009680968C9052FD40021C18501680C31C1
:101F600051E8002F22F4807241E80023002BF5D1C4
:101F70000168143151E8002F22F0010241E80023EA
:101F8000002BF5D10168143151E8002F22F04002F6
:101F900041E80023002BF5D1202180F83E10016B91
:101FA000012909D101680C3151E8002F22F01002FB
:101FB00041E80023002BF5D1016B012902D0FFF786
:101FC00063FD10BD818DFFF7B7FA10BD10B5806BB2
:101FD000016B012902D0FFF758FD10BD818D490822
:101FE000FFF7AAFA10BD01680C3151E8002F22F466
:101FF000907241E80023002BF5D10168143151E8BB
:10200000002F22F0010241E80023002BF5D1016BE3
:10201000012909D101680C3151E8002F22F010028A
:1020200041E80023002BF5D1202180F83E1000214B
:102030000163704701680C3151E8002F22F0C002A3
:1020400041E80023002BF5D1202180F83D10704796
:1020500008B590F83E10222901D0022008BD826800
:102060004FF480539A4201D1016921B1816A9A42A9
:102070001BD04AB10AE00268816A5268C2F30802C2
:102080000A80816A891C08E0026972B1026852689C
:1020900002F07F020A70816A491C8162C18D491E6B
:1020A0000904090CC18503D019E002685268F1E700
:1020B0000168CA6822F02002CA600168CA6822F476
:1020C0008072CA6001684A6922F001024A612021D7
:1020D00080F83E10016B012903D0FFF7D5FC0020EA
:1020E00008BD0021016301680C3151E8002F22F086
:1020F000100241E80023002BF5D101680A68D206DE
:1021000002D50A6849680091818DFFF715FAE6E764
:1021100070B5044600680169E26821F4405111433A
:1021200001612169A068E2690843616911430843BC
:102130002168CA6849F20C639A430243CA60206866
:102140004169A26921F4407111434161314920681C
:10215000884202D03049884202D1FEF787FF01E071
:10216000FEF774FFE2690023192164253226B2F5D7
:10217000004F626828D0A0FB0101930F9200FEF788
:1021800091F80146B0FBF5F06FF01802504301EBF7
:10219000800006EB0010B0FBF5F000F0F002B1FBA0
:1021A000F5F002EB0012B1FBF5F06FF018035843A5
:1021B00001EB800006EB0010B0FBF5F000F00F0023
:1021C00021681044886070BDA0FB010192185B413A
:1021D000FEF768F80146B0FBF5F00201B1FBF5F03F
:1021E0006FF01803584301EB800006EBC000B0FB12
:1021F000F5F000F0F80002EB4002B1FBF5F05843B7
:1022000001EB800006EBC000B0FBF5F000F007002A
:10221000D6E70000001001400014014038B581628B
:1022200082850025134604460564222084F83E007A
:10223000A26B1B48D063A26B1A481064A26B1A48A9
:10224000D064A06B0A4605652168A06B091DFEF7E6
:10225000F5FA206801684068009084F83C502068D6
:102260000C3050E8001F41F4807140E80012002A51
:10227000F5D12068143050E8001F41F0010140E81A
:102280000012002AF5D12068143050E8001F41F0F8
:10229000400140E80012002AF5D1002038BD0000BE
:1022A0004B1F0008CD1F0008011F00082DE9F04159
:1022B000984617460E460446069D27E0681C25D022
:1022C0002DB1FEF7F9FBA0EB0800A8421ED920684B
:1022D0000C3050E8001F21F4D07140E80012002AB1
:1022E000F5D12068143050E8001F21F0010140E8CA
:1022F0000012002AF5D1202084F83D0084F83E0029
:10230000002084F83C000320BDE8F08120680068CC
:1023100036EA000004D00020B842CFD00020F3E716
:102320000120F9E70148FFF7F1B90000680000203B
:10233000FEE70907090E002804DB00F1E02080F821
:102340000014704700F00F0000F1E02080F8141D29
:10235000704710B5802000F057F80024202000F0CE
:1023600073F8641C502CF9DB10BD10B53220FEF759
:102370009DFA302000F048F80520FEF797FA30204B
:1023800000F042F80120FEF791FA302000F03CF80E
:102390000A20FEF78BFA202000F036F80A20FEF71C
:1023A00085FA282000F030F80120FEF77FFA082097
:1023B00000F02AF80120FEF779FA012000F024F855
:1023C0000120FEF773FA0120FEF770FA062000F0F4
:1023D0001BF80120FEF76AFABDE810400E2000F05D
:1023E00013B858B1012804D0022804D0032805D11D
:1023F00003E0403102E0143100E05431C8B240F053
:10240000800000F001B800001CB500F0F00141F0C0
:102410000C028DF8042041F0080100018DF8051030
:1024200040F00C018DF8061040F008008DF8070010
:1024300064200090042301AA4E210248FEF706FC06
:102440001CBD0000140000201CB500F0F00141F09C
:102450000D028DF8042041F0090100018DF80510EE
:1024600040F00D018DF8061040F009008DF80700CE
:1024700064200090042301AA4E210248FEF7E6FBE7
:102480001CBD00001400002010B5044608E00D2813
:1024900005D00A2803D0641CFFF7D6FF00E0641CB7
:1024A00020780028F3D110BD08B5FEF7A1FCFFF796
:1024B000CBFCFFF777FC32483049002401603149FA
:1024C000C0E901144FF48041C0E9034144618461D3
:1024D000C4610462FEF7F6FA08B172B6FEE72A4854
:1024E000016841F4001101600068002200F400104E
:1024F000009011461020FEF7DDFC1020FEF7CCFC0A
:102500001F482249543001604FF4E131C0E9011401
:102510000C21C460C0E904418461C461FFF72AFA58
:1025200008B172B6FEE7FFF720FFFFF712FF0321A5
:102530000120FFF756FF16A0FFF7A6FF0621022095
:10254000FFF74FFF16A0FFF79FFF4FF4FA60FEF76B
:10255000ADF9FFF7FEFE00210846FFF742FF0849EC
:102560001922F831A1F1A400FEF7BAFF044898300F
:102570000068016821F008010160FEE70054004096
:1025800014000020A08601003038024000440040C2
:1025900053544D33322055415254204C4344000093
:1025A000434F4E54524F4C004FF04070E1EE100A32
:1025B000704700004F4B2E0000000006101600066A
:1025C00010160000000000000000010203040607CE
:1025D000080900000000010203040000FC250008B7
:1025E000000000201400000000020008102600086F
:1025F00014000020740700001C0200080000000006
:102600000100000010000000000000000024F400A1
:04000005080001C529
:00000001FF
